:020000040800F2
:100000000020002095090008890900088B090008D4
:1000100000000000000000000000000000000000E0
:100020000000000000000000000000008D09000832
:1000300000000000000000008F090008910900087E
:10004000E5090008E5090008E5090008E5090008D8
:10005000E5090008E5090008E5090008E5090008C8
:10006000E5090008E5090008E5090008E5090008B8
:10007000E5090008E5090008E5090008E5090008A8
:10008000E5090008E5090008000000001506000861
:10009000E5090008E5090008E5090008E509000888
:1000A000E5090008E5090008E5090008E509000878
:1000B000E509000800000000E50900080000000054
:1000C000002243088B4274D303098B425FD3030A97
:1000D0008B4244D3030B8B4228D3030C8B420DD3AA
:1000E000FF22090212BA030C8B4202D31212090238
:1000F00065D0030B8B4219D300E0090AC30B8B4276
:1001000001D3CB03C01A5241830B8B4201D38B0323
:10011000C01A5241430B8B4201D34B03C01A5241C8
:10012000030B8B4201D30B03C01A5241C30A8B420B
:1001300001D3CB02C01A5241830A8B4201D38B02F6
:10014000C01A5241430A8B4201D34B02C01A52419A
:10015000030A8B4201D30B02C01A5241CDD2C3090C
:100160008B4201D3CB01C01A524183098B4201D388
:100170008B01C01A524143098B4201D34B01C01A73
:10018000524103098B4201D30B01C01A5241C308EB
:100190008B4201D3CB00C01A524183088B4201D35A
:1001A0008B00C01A524143088B4201D34B00C01A46
:1001B0005241411A00D20146524110467047FFE7B2
:1001C00001B5002000F006F802BDC0460029F7D0B6
:1001D00076E770477047C04610B5064C2378002B71
:1001E00007D1054B002B02D0044800E000BF0123DB
:1001F000237010BD0C00002000000000300A000831
:10020000044B10B5002B03D00349044800E000BFA5
:1002100010BDC0460000000010000020300A000899
:1002200082B0430018180023019304E0C046C04682
:10023000019B01330193019B8342F7D302B07047C6
:1002400070B51420FFF7ECFF0A4CA36980252D023E
:100250002B43A3611420FFF7E3FFA26980231B0651
:100260001343A3611420FFF7DBFFA3691D43A561BE
:1002700070BDC0460008004810B50400454A9169A9
:100280008023DB010B43936143B2002B46DB9022BA
:10029000D205916980231B060B439361630645D504
:1002A0009022D205916980235B010B439361A306E1
:1002B00044D5394A916980239B000B439361E3063F
:1002C00043D5354A916980235B000B439361FFF767
:1002D000B7FF230740D59022D205916980231B02E6
:1002E0000B43936163073FD59022D2059169802328
:1002F0005B010B439361A3073ED5274A9169802395
:100300009B000B439361E4073DD5234A9169802309
:100310005B000B439361FFF793FF10BD9022D20562
:10032000916980231B020B439361B7E79022D205AA
:10033000916980235B050B439361B8E7164A916985
:1003400080239B040B439361B9E7134A916980238F
:100350005B040B439361BAE79022D2059169802335
:100360001B060B439361BDE79022D2059169802360
:100370005B050B439361BEE7074A916980239B04A9
:100380000B439361BFE7044A916980235B040B43ED
:100390009361C0E7000800480004004870B50500FC
:1003A000002403E0FFF768FF0134E4B2285D002871
:1003B000F8D170BD10B50400474A91698023DB0570
:1003C0000B43936143B2002B49DB9022D205916924
:1003D00080231B060B439361630648D59022D20508
:1003E000916980235B010B439361A30647D53B4A88
:1003F000916980239B000B439361E30646D5374AFE
:10040000916980235B000B439361FFF719FF23077A
:1004100043D59022D205916980231B020B4393613F
:10042000630742D59022D205916980235B010B437B
:100430009361A30741D5294A916980239B000B430F
:100440009361E40740D5254A916980235B000B4303
:100450009361FFF7F5FE2248FFF7E2FE10BD902200
:10046000D205916980231B020B439361B4E790226C
:10047000D205916980235B050B439361B5E7174A69
:10048000916980239B040B439361B6E7134A9169FA
:1004900080235B040B439361B7E79022D2059169F7
:1004A00080231B060B439361BAE79022D205916922
:1004B00080235B050B439361BBE7084A9169802366
:1004C0009B040B439361BCE7044A916980235B045E
:1004D0000B439361BDE7C046000800480004004894
:1004E000B80B000010B51B4B5969802292020A43D9
:1004F0005A6159698022D2020A435A61596980229D
:1005000012030A435A619022D20511688223DB0547
:100510000B431360104A1168A023DB020B431360E6
:100520000E4A1168A023DB050B4313600C48FFF74C
:1005300077FE3320FFF73EFF3220FFF73BFF0C2012
:10054000FFF738FF2820FFF735FF0120FFF732FFC4
:1005500010BDC046001002400004004800080048DA
:10056000307500001A4B59698022D2020A435A6141
:10057000184A1068184901431160002151615969F6
:10058000802292020A435A619023DB051A680321F4
:100590008A431A601A6809318A431A601A6824313A
:1005A0008A431A601A6890318A431A60DA68BF3940
:1005B0000A43DA60DA6803310A43DA60DA680C3138
:1005C0000A43DA60DA6830310A43DA607047C046BD
:1005D000001002400004004855555000094AD169F6
:1005E00080235B000B43D361074B04229A62074AC6
:1005F000DA62DA6801210A43DA60054B80221203CD
:100600001A6070470010024000200040B036000021
:1006100000E100E0164A13780133DBB21370642B5B
:1006200016D0144B197809238B429241524212483A
:100630000270124A127893429B415B421048037049
:100640003C290DD00F4A136901218B431361704778
:10065000084A137801331370054B00221A70E0E743
:10066000064B01321A70034B00221A70EAE7C046AB
:100670003800002039000020290000203A00002026
:10068000280000200020004010B59023DB051869E9
:100690001A69022111401C69042222401C690823A6
:1006A0002340C00709D4184801240470174C0020C7
:1006B0002070174C2070174C207000290BD1124865
:1006C0000131017011480170114800240470114873
:1006D000047011480170002A09D10B4A01201070E2
:1006E0000A4A002111700A4A10700A4A1170002B40
:1006F00008D1054A1370054A1370054A1370054B5B
:1007000001221A7010BDC0463E0000203D000020AE
:100710003C0000200A0000203B00002070B584B09F
:1007200004000D0001AA0F4B41CB41C21B8813806E
:10073000092C0ED80A212000FFF748FDC9B20A4B48
:100740001A6801A8415CA9541A6801321A6004B001
:1007500070BD0A212000FFF7B3FCC0B22900FFF7EB
:10076000DDFFE7E7480A000834000020F0B5C64680
:1007700000B5884617001C001C49FFF7CFFF1C4D31
:1007800000262E601B494046FFF7C8FF2E601A491D
:100790003800FFF7C3FF2E60184B1B78002B19D0D1
:1007A000124B1A7822705B7863703A23A370144B53
:1007B0001B78002B14D00F4B1A78E2705B782371F2
:1007C0002E2363710C4B1A78A2715B78E37180BCA5
:1007D000B846F0BD054B1A7862705B782370E4E789
:1007E0003023E370034B1B782371E9E708000020F6
:1007F0003400002004000020000000202800002019
:100800002900002070B50120FFF7D4FD414B1B7873
:10081000002B2CD1404B1B78002B07D03F4B1B7873
:10082000002B03D13E4B1B78002B3CD03A4B1B785E
:10083000002B13D0394B1B78002B0FD0394B1B7872
:10084000002B4BD13848FFF7A9FDC020FFF7B2FDC0
:100850003648FFF7A3FD364B02225A612E4B1B7818
:10086000002B03D02E4B1B78002B41D170BD0120F3
:10087000FFF7A0FD2F48FFF791FDC020FFF79AFD7D
:100880002D48FFF78BFD2D4A136801218B43136020
:100890002B4A002313702B4A13702B4A1370244BDE
:1008A00008225A61B6E7254A136801252B431360D5
:1008B0001E4C254B1A78234B1978214B18782300AE
:1008C000FFF754FF1848FFF769FDC020FFF772FDDE
:1008D0002000FFF763FD164B5D61A7E7134B1A4A33
:1008E00012781849097816480078FFF73FFFA9E702
:1008F000124A136801218B4313600B48FFF74EFD2A
:10090000C020FFF757FD0948FFF748FD084B0422B8
:100910005A61ABE70A0000203E0000203D000020A5
:100920003C0000203B000020700A00082C00002042
:1009300000040048540A0008600A00080020004033
:100940003A000020390000203800002000B583B0B4
:10095000FFF708FEFFF7C6FDFFF740FE02E0084B79
:1009600000221A70FFF790FEFFF74CFF002301935F
:10097000019A044B9A42F2DC019B01330193F7E7A1
:100980003B0000200F270000FEE7FEE7704770479E
:10099000704770470D488546FFF7FBFF0C480D492F
:1009A0000D4A002302E0D458C4500433C4188C42CA
:1009B000F9D30A4A0A4C002301E013600432A24230
:1009C000FBD300F011F8FFF7C1FFFEE70020002085
:1009D000000000200C000020800A00080C0000200D
:1009E00040000020FEE7000070B500260C4C0D4DC5
:1009F000641BA410A64209D1002600F019F80A4C85
:100A00000A4D641BA410A64205D170BDB300EB587B
:100A100098470136EEE7B300EB5898470136F2E706
:100A2000780A0008780A00087C0A0008780A00089A
:100A3000F8B5C046F8BC08BC9E467047F8B5C0463D
:080A4000F8BC08BC9E4670479B
:100A480030313233343536373839000053746F70EB
:100A580077617463680000005072657373205357A0
:100A6800302E2E2E0000000054696D650000000035
:040A7800010200086F
:040A7C00D901000894
:0C0A800030300000303000003030010049
:040000050800099551
:00000001FF
